{
  "_format": "hh-sol-artifact-1",
  "contractName": "LSP19PostValidator",
  "sourceName": "contracts/LSP19PostValidator.sol",
  "abi": [
    {
      "anonymous": false,
      "inputs": [
        {
          "indexed": true,
          "internalType": "bytes32",
          "name": "postHash",
          "type": "bytes32"
        },
        {
          "indexed": true,
          "internalType": "string",
          "name": "postUrl",
          "type": "string"
        },
        {
          "indexed": true,
          "internalType": "address",
          "name": "author",
          "type": "address"
        }
      ],
      "name": "NewPost",
      "type": "event"
    },
    {
      "inputs": [],
      "name": "REGISTRY_KEY",
      "outputs": [
        {
          "internalType": "bytes32",
          "name": "",
          "type": "bytes32"
        }
      ],
      "stateMutability": "view",
      "type": "function"
    },
    {
      "inputs": [
        {
          "internalType": "bytes32",
          "name": "postHash",
          "type": "bytes32"
        },
        {
          "internalType": "string",
          "name": "postUrl",
          "type": "string"
        }
      ],
      "name": "post",
      "outputs": [],
      "stateMutability": "nonpayable",
      "type": "function"
    },
    {
      "inputs": [
        {
          "internalType": "bytes32",
          "name": "postHash",
          "type": "bytes32"
        },
        {
          "internalType": "string",
          "name": "postUrl",
          "type": "string"
        },
        {
          "internalType": "bytes",
          "name": "registryJsonUrl",
          "type": "bytes"
        }
      ],
      "name": "postWithJsonUrl",
      "outputs": [],
      "stateMutability": "nonpayable",
      "type": "function"
    }
  ],
  "bytecode": "0x608060405234801561001057600080fd5b50610306806100206000396000f3fe608060405234801561001057600080fd5b50600436106100415760003560e01c80630a16feb014610046578063564ce1181461005b5780639641f3221461006e575b600080fd5b6100596100543660046101c4565b6100a7565b005b61005961006936600461023e565b610132565b6100957faa093cc8e40d9473239c9fefe0f7e73ad8b9fb1bfca176dcaf5a8af4eacfb1f481565b60405190815260200160405180910390f35b6100b2858585610132565b604051631fc8da4360e21b81523390637f23690c906100f9907faa093cc8e40d9473239c9fefe0f7e73ad8b9fb1bfca176dcaf5a8af4eacfb1f4908690869060040161028a565b600060405180830381600087803b15801561011357600080fd5b505af1158015610127573d6000803e3d6000fd5b505050505050505050565b604051339061014490849084906102c0565b6040519081900381209085907f10d4125dcc34ec615938cc7640a23a946c68ecfe89d7e7f3667e1687c021c40390600090a4505050565b60008083601f84011261018d57600080fd5b50813567ffffffffffffffff8111156101a557600080fd5b6020830191508360208285010111156101bd57600080fd5b9250929050565b6000806000806000606086880312156101dc57600080fd5b85359450602086013567ffffffffffffffff808211156101fb57600080fd5b61020789838a0161017b565b9096509450604088013591508082111561022057600080fd5b5061022d8882890161017b565b969995985093965092949392505050565b60008060006040848603121561025357600080fd5b83359250602084013567ffffffffffffffff81111561027157600080fd5b61027d8682870161017b565b9497909650939450505050565b83815260406020820152816040820152818360608301376000818301606090810191909152601f909201601f1916010192915050565b818382376000910190815291905056fea2646970667358221220945d4610ab1bac2d196aac92ea75f9126a45d1af5788961ba8b87a93a93e098564736f6c63430008090033",
  "linkReferences": {},
  "deployedLinkReferences": {}
}